:020000040000FA
:060000000A128A11FC2F18
:100F600083120313081308008312031308170800E1
:100F70008312031308138316031308130800CE2FDC
:100F8000C730F200C32FF20BC22FC62FC72F01307C
:100F9000F0020030031CF103F102CE2F700871043F
:100FA000031DD32FD42FC02FD52F08000A128A116A
:100FB000B8270A128A110A128A11B4270A128A1152
:100FC000D030F0000730F1000A128A11BF270A1250
:100FD0008A110A128A11B0270A128A11E830F00029
:100FE0000330F1000A128A11BF270A128A11DB2F7F
:100FF000DB2F0A128A11002883010A128A11D62FC8
:02400E00D4EFED
:00000001FF
