:020000040000FA
:060000000A128A11FC2F18
:100F4C0083120313081308008312031308170800F5
:100F5C008312031308138316031308130800831258
:100F6C000313080D080D0139BB2F0800CB2FC73018
:100F7C00F200C02FF20BBF2FC32FC42F0130F00291
:100F8C000030031CF103F102CB2F70087104031D18
:100F9C00D02FD12FBD2FD22F08000A128A11AE27C5
:100FAC000A128A11D92F0A128A11B5270A128A112C
:100FBC00013A031DE22FE32FD92F0A128A11AA2717
:100FCC000A128A119830F0003A30F1000A128A1194
:100FDC00BC270A128A110A128A11A6270A128A1130
:100FEC00D92FD92FD92F0A128A11002883010A125E
:040FFC008A11D32F54
:02400E00D4EFED
:00000001FF
