:020000040000FA
:060000000A128A11FC2F18
:100F4A0083120313081308008312031308170800F7
:100F5A00831203130813831603130813080083125A
:100F6A000313080D080D0139BA2F0800CA2FC7301C
:100F7A00F200BF2FF20BBE2FC22FC32F0130F00297
:100F8A000030031CF103F102CA2F70087104031D1B
:100F9A00CF2FD02FBC2FD12F08000A128A11AD27CC
:100FAA000A128A11D82F0A128A11B4270A128A1130
:100FBA00013A031DE12FE22FF12F0A128A11A92704
:100FCA000A128A119830F0003A30F1000A128A1196
:100FDA00BB270A128A11D82F0A128A11A5270A12C8
:100FEA008A11D82FD82FD82F0A128A1100288301E4
:060FFA000A128A11D22F39
:02400E00D4EFED
:00000001FF
